:020000040800F2
:1000000018040024AD0200085D0D0008590D000819
:100010005B0D0008190300089D0E00080000000099
:10002000000000000000000000000000610D00085A
:100030001B030008000000005F0D0008630D0008AE
:10004000C7020008C7020008C7020008C70200086C
:10005000C7020008C7020008C7020008C70200085C
:10006000C7020008C7020008C7020008C70200084C
:10007000C7020008C7020008C7020008C70200083C
:10008000C7020008C7020008C7020008C70200082C
:10009000C7020008C7020008C7020008C70200081C
:1000A000C7020008C7020008C7020008C70200080C
:1000B000C7020008C7020008C7020008C7020008FC
:1000C000C7020008C7020008C7020008C7020008EC
:1000D000C7020008C7020008C7020008C7020008DC
:1000E000C7020008C702000800000000C70200089D
:1000F000C7020008C7020008C7020008C7020008BC
:10010000C7020008C7020008C7020008C7020008AB
:10011000C7020008C7020008C7020008C70200089B
:10012000C7020008C7020008C7020008C70200088B
:10013000C7020008C7020008C7020008C70200087B
:1001400000000000000000000000000000000000AF
:10015000C7020008C7020008C7020008C70200085B
:10016000C7020008C7020008C7020008C70200084B
:10017000C7020008C7020008C7020008C70200083B
:10018000C7020008C7020008C7020008C70200082B
:10019000C7020008C7020008C7020008C70200081B
:1001A000C7020008C7020008C7020008C70200080B
:1001B000C7020008C7020008C7020008C7020008FB
:1001C000C7020008C7020008C7020008C7020008EB
:1001D000C7020008C7020008C7020008C7020008DB
:1001E000C7020008C7020008C7020008C7020008CB
:1001F000C7020008C7020008C7020008C7020008BB
:10020000C7020008C7020008C7020008C7020008AA
:10021000C7020008C7020008C7020008C70200089A
:10022000C7020008C7020008C7020008000000005B
:10023000C7020008C702000800000000C70200084B
:10024000C7020008C7020008C7020008C70200086A
:10025000C7020008C7020008C7020008C70200085A
:10026000C7020008C7020008C7020008C70200084A
:10027000C7020008C7020008C7020008000000000B
:10028000C7020008C7020008C702000800000000FB
:1002900000000000C7020008DFF80CD000F02AF8C8
:1002A00000480047E10E0008180400240648804773
:1002B00006480047FEE7FEE7FEE7FEE7FEE7FEE74B
:1002C000FEE7FEE7FEE7FEE7010E000899020008E0
:1002D000D2B201E000F8012B491EFBD27047002288
:1002E000F6E710B513460A4604461946FFF7F0FF35
:1002F000204610BD064C074D06E0E06840F00103C3
:1003000094E8070098471034AC42F6D3FFF7C8FFD3
:10031000140F0008340F0008FEE77047014800681A
:10032000000C70470010005C0148806870470000B6
:1003300000000024024881680278114481607047FF
:1003400000000024032010B500F078F800F0E0F978
:100350000F4A104914681368C4F3032203F00F0313
:100360008A5CC95C02F01F0201F01F01D0400A4AFA
:1003700020FA01F1116009490860002000F010F82E
:1003800008B1012010BD00F02BF8002010BD0000C6
:1003900018440258040F0008100000240C00002428
:1003A00070B50D4D04462878A0B14FF47A71B1FBB9
:1003B000F0F00A490968B1FBF0F000F0BAFC48B966
:1003C000102C07D200222146501E00F017F8002002
:1003D0006C6070BD012070BD000000240C00002482
:1003E000054808B5016841F002010160006800F0AD
:1003F0000200009008BD0000F44402580E4BF0B417
:100400001B680D46C3F30223C3F10706042E00D96F
:100410000426191D072901D2002300E0DB1E012458
:1004200004FA06F19C40491E2940641E994014407C
:100430002143F0BC00F033BD0CED00E0064900F0B4
:10044000070210B54FF6FF040868044B204040EA4D
:1004500002201843086010BD0CED00E00000FA0512
:10046000134970B50A68D243520705D5096801F0EF
:100470000701814213D118E00A6822F00702024303
:100480000A60FFF751FF0A4D4FF47A760446083DA3
:1004900007E000BFFFF748FF001BB04201D9012071
:1004A00070BD2868C0438004F4D4002070BD0000F3
:1004B0000C4802582DE9F05F04000F467ED0DFF8AB
:1004C0003882D8F8000000F00F00B8420CD2D8F8FB
:1004D000001021F00F013943C8F80010D8F80000CF
:1004E00000F00F00B84269D12078844D40070AD54A
:1004F0002069296801F07001884204D9296821F037
:1005000070010143296020787C4E361D00070AD512
:100510006069316801F07001884204D9316821F0C6
:100520007001014331602078C0060AD5A0693168A6
:1005300001F4E061884204D9316821F4E0610143AB
:1005400031602078DFF8B4B180060BF1080B0CD5D0
:10055000E1695846DBF8002002F07002914204D9AC
:10056000026822F070020A430260207880070AD5F0
:10057000E068296801F00F01884204D9296821F058
:100580000F01014329602078C0073ED05B49A26873
:100590002868183920F470601043286060680228C9
:1005A00018D0032819D00968012819D04907002953
:1005B0004ADADFF848A1AAF1080A00E044E0DAF8D4
:1005C000002022F007020243CAF80020FFF7ACFE29
:1005D000814612E009688903E9E709688901E6E7CD
:1005E000C905E4E7FFF7A0FEA0EB090141F288305E
:1005F000814202D90320BDE8F09F6168DAF800006B
:1006000000F03800B0EBC10FECD1207880070AD59C
:10061000E068296801F00F01884204D2296821F0BE
:100620000F0101432960D8F80010404601F00F0186
:10063000B9420BD9016821F00F013943016000680C
:1006400000F00F00B84201D00120D4E72078400725
:100650000AD52069296801F07001884204D229680E
:1006600021F0700101432960207800070AD56069F4
:10067000316801F07001884204D2316821F07001C4
:10068000014331602078C0060AD5A069316801F4C1
:10069000E061884204D2316821F4E06101433160B5
:1006A000207880060CD5E1695846DBF8002002F07E
:1006B0007002914204D2026822F070020A43026082
:1006C00000F026F80E492A682B68C2F3032203F0D3
:1006D0000F038A5CC95C02F01F0201F01F01D040C9
:1006E000084A20FA01F111600749086007480068CC
:1006F000BDE8F05FFFF754BE0020005218440258D6
:10070000040F0008100000240C0000240400002442
:10071000454970B545480968434B103B11F0380214
:1007200008D00111082A03D0102A0BD0182A0BD0A8
:10073000084670BD19688906FBD51968C1F3C10167
:10074000C84070BD3A4870BD3749374D18310C1D4F
:1007500024350A68096826682D6802F0030406F04B
:100760000102C1F30511C5F3CC0515FB02F200EE41
:10077000102AB8EE400AE9B32F4ADFED2E0AB7EE91
:10078000001A6CB1DFED2D1A012C01D0022C43D0E0
:1007900002EE101A1068F8EE422A81EEA22A1EE03C
:1007A0001C68A40611D51B6801EE901A1168C3F3EA
:1007B000C103F8EE612AD84001EE900AC1F30800A7
:1007C000F8EE611A81EEA22A0BE001EE901ADFED3D
:1007D0001C2A00BFF8EE611A106882EEA12AC0F34D
:1007E000080001EE900AF8EE611A40EE201A31EE90
:1007F000810A00E015E022EE000A1068C0F34620EE
:10080000401C00EE900AF8EE600A80EE201ABCEE62
:10081000C10A10EE100A70BD01EE901ADFED092A30
:10082000D8E7002070BD0000104402580090D003AB
:10083000001BB70000000039304402580024744AFD
:100840000024744C001B374B2DE9F05F04007CD072
:10085000FF4F2078FE4D1837DFF8F493103DC007A6
:1008600048D0D9F80000396800F03800102815D0B9
:10087000182803D101F0030002280FD06068B0F5FA
:10088000803F12D010B1B0F5A02F18D0286820F406
:1008900080302860286820F4802009E028688003E0
:1008A00028D560680028D2D024E0286840F4803041
:1008B0002860606888B1FFF737FD064609E02868C0
:1008C00040F480202860F0E7FFF72EFD801B6428AD
:1008D0007ED828688003F7D50CE0FFF725FD064693
:1008E00005E000BFFFF720FD801B6428F0D82868D2
:1008F0008003F7D4207841F20308D54E0C3E8007E0
:100900004BD5D9F80000396810F038000ED01828FF
:1009100001D188070AD0E06868B3296821F019017D
:1009200001432960FFF700FD824619E0286840076F
:1009300002D5E06800288AD0FFF7F0FC404513D8C4
:100940002069316821F47C3100E0BEE041EA0030EA
:10095000306022E0FFF7E8FCA0EB0A000228B7D8DD
:1009600028684007F6D5E7E7207C316821F0FE4192
:1009700041EA0060ECE7286820F001002860FFF7FA
:10098000D3FC824606E000BFFFF7CEFCA0EB0A00D6
:1009900002289DD828684007F6D42078C00659D58B
:1009A000D9F80000DFF8A8B2396800F03800ABF1E0
:1009B000040B082812D0182803D101F003000128E5
:1009C0000CD0E0690028286834D040F0800000E0B6
:1009D000DCE02860FFF7A8FC824623E02868C00519
:1009E00023D5E069802870D11FE000BF94F8200073
:1009F000316821F0F84141EA806030602AE000BFB0
:100A000094F82010DBF8002022F07C5242EA0161C9
:100A1000CBF800101EE000BFFFF786FCA0EB0A0039
:100A200002289CD82868C005F6D5FFF777FC40451A
:100A3000E6D8DBE720F080002860FFF775FC06466B
:100A400005E000BFFFF770FC801B022887D82868EC
:100A5000C005F7D42078000729D57D486169643046
:100A600000298046016811D041F001010160FFF7C3
:100A70005BFC064605E000BFFFF756FC801B022822
:100A800087D8D8F800008007F6D510E021F00101E2
:100A90000160FFF749FC064605E000BFFFF744FC94
:100AA000801B022872D8D8F800008007F6D420787E
:100AB000800623D5A0690028286810D040F4805013
:100AC0002860FFF731FC064605E02EE1FFF72CFC1D
:100AD000801B02285AD828688004F7D50EE020F43D
:100AE00080502860FFF720FC064604E0FFF71CFC5E
:100AF000801B02284AD828688004F7D42078400751
:100B00004FD5DFF85081D8F8001041F48071C8F853
:100B10000010FFF709FC064605E000BFFFF704FCE4
:100B2000801B642832D8D8F80000C005F6D5484E9E
:100B3000A068603601280AD008B1052813D03068B3
:100B400020F001003060306820F0040002E03068DE
:100B500040F001003060A06841F2883A90B1FFF7A0
:100B6000E3FB80460AE0306840F004003060EEE7C6
:100B7000FFF7DAFBA0EB0801514507D83068800782
:100B8000F6D50EE0FFF7D0FB804607E084E000BF1B
:100B9000FFF7CAFBA0EB080151457DD830688007FC
:100BA000F6D4606AF0B3DFF8A880D9F8001008F135
:100BB0002008C1F3C20103296FD00228286820F061
:100BC0008070286003D0FFF7AFFB044682E0FFF798
:100BD000ABFB064605E000BFFFF7A6FB801B022823
:100BE00075D828688001F7D4E26A40F2F33138689A
:100BF00054F8283F884340EA021018433860217BAC
:100C00004FF4FE0C22894FF0FE47208A4902267DD0
:100C1000521E401EA1F5007189B20CEA0040C2F3D9
:100C2000080200E083E01143761E0143084807EA0A
:100C300006621143064A1C30C8F8001024320168CD
:100C400021F00101016011684FF6F876B14303E02D
:100C50001044025800480258236A41EAC301116057
:100C60000168A26921F00C01114301600168E26989
:100C700021F0020111430160016841F480310160FB
:100C8000016841F400310160016841F48021016094
:100C9000016841F0010101E019E01FE001602868EE
:100CA00040F080702860FFF73FFB044605E000BF7E
:100CB000FFF73AFB001B022809D828688001F7D506
:100CC00035E000BFFFF730FB001B022802D90320EC
:100CD000BDE8F09F28688001F4D428E03968012835
:100CE000D8F8000021D0A26A01F0030393421CD17E
:100CF000E26AC1F305118A4217D1216BC0F30802E1
:100D0000491E8A4211D1616BC0F34622491E9142AD
:100D10000BD1A16BC0F30642491E914205D1E16B94
:100D2000C0F30660491E814201D00120D0E70020B7
:100D3000CEE7401EB0F1807F10B501D3012010BD79
:100D40004FF0E02460610F21601700F0A8F8002048
:100D5000A0610721216110BDFEE7FEE770477047E3
:100D60007047FFF7E7BA000030B59DB04C216846E8
:100D7000FFF7B5FA202113A8FFF7B1FA0220FFF719
:100D80006FFB1D4800241D49026842F44042026086
:100D900002680A6842F001020A60096801F0010174
:100DA0001B9101688904FCD5022009900121C2032E
:100DB00050230C25CDE900120AAA82E80B000D9001
:100DC000CDE910540E900F9068461294FFF73CFD49
:100DD00040201A9008230501CDE9163013ABCDE968
:100DE00018053F21032283E81600042113A8FFF70A
:100DF00061FB1DB030BD0000184802582C0400589B
:100E0000214A30B5214914680020204B44F4700475
:100E1000146010330A681E4D42F001020A60186027
:100E20000A681A4B2A400A6018331C1D251D174AF0
:100E3000186028322060131D28601C1D251D1060BD
:100E40002A1D1860131D20601C1D2860251D1060C0
:100E50001860206028600A680C4B0E4C22F4802237
:100E600060330A60186020686FF30F00B0F1005F14
:100E700003D209490120C1F808014FF0006002497E
:100E80008039086030BD000088ED00E00044025861
:100E90007FEDF6EA0010005C00800051FEE70907D4
:100EA00000284FEA116104DB00F1E02080F8001413
:100EB000704700F00F0000F1E02080F8141D70472B
:100EC00002E008C8121F08C1002AFAD17047704713
:100ED000002001E001C1121F002AFBD17047000071
:100EE00008B5FFF72FFAFFF73FFF0548016841F00B
:100EF00080010160006800F080000090FEE70000C3
:100F0000E04402580000000001020304010203044F
:100F100006070809340F0008000000241400000030
:100F2000C00E0008480F000814000024040400004C
:100F3000D00E0008010000001000000000000000BA
:080F40000090D0030090D003E3
:040000050800029954
:00000001FF
